{
  "contractName": "Adulam",
  "abi": [
    {
      "inputs": [
        {
          "internalType": "string",
          "name": "_name",
          "type": "string"
        },
        {
          "internalType": "string",
          "name": "_symbol",
          "type": "string"
        },
        {
          "internalType": "string",
          "name": "_baseURI",
          "type": "string"
        }
      ],
      "stateMutability": "nonpayable",
      "type": "constructor"
    },
    {
      "anonymous": false,
      "inputs": [
        {
          "indexed": true,
          "internalType": "address",
          "name": "owner",
          "type": "address"
        },
        {
          "indexed": true,
          "internalType": "address",
          "name": "approved",
          "type": "address"
        },
        {
          "indexed": true,
          "internalType": "uint256",
          "name": "tokenId",
          "type": "uint256"
        }
      ],
      "name": "Approval",
      "type": "event"
    },
    {
      "anonymous": false,
      "inputs": [
        {
          "indexed": true,
          "internalType": "address",
          "name": "owner",
          "type": "address"
        },
        {
          "indexed": true,
          "internalType": "address",
          "name": "operator",
          "type": "address"
        },
        {
          "indexed": false,
          "internalType": "bool",
          "name": "approved",
          "type": "bool"
        }
      ],
      "name": "ApprovalForAll",
      "type": "event"
    },
    {
      "anonymous": false,
      "inputs": [
        {
          "indexed": true,
          "internalType": "address",
          "name": "previousOwner",
          "type": "address"
        },
        {
          "indexed": true,
          "internalType": "address",
          "name": "newOwner",
          "type": "address"
        }
      ],
      "name": "OwnershipTransferred",
      "type": "event"
    },
    {
      "anonymous": false,
      "inputs": [
        {
          "indexed": false,
          "internalType": "uint256",
          "name": "id",
          "type": "uint256"
        },
        {
          "indexed": true,
          "internalType": "address",
          "name": "from",
          "type": "address"
        },
        {
          "indexed": true,
          "internalType": "address",
          "name": "to",
          "type": "address"
        },
        {
          "indexed": false,
          "internalType": "uint256",
          "name": "cost",
          "type": "uint256"
        },
        {
          "indexed": false,
          "internalType": "string",
          "name": "metadataURI",
          "type": "string"
        },
        {
          "indexed": false,
          "internalType": "uint256",
          "name": "timestamp",
          "type": "uint256"
        }
      ],
      "name": "Sale",
      "type": "event"
    },
    {
      "anonymous": false,
      "inputs": [
        {
          "indexed": true,
          "internalType": "address",
          "name": "from",
          "type": "address"
        },
        {
          "indexed": true,
          "internalType": "address",
          "name": "to",
          "type": "address"
        },
        {
          "indexed": true,
          "internalType": "uint256",
          "name": "tokenId",
          "type": "uint256"
        }
      ],
      "name": "Transfer",
      "type": "event"
    },
    {
      "inputs": [
        {
          "internalType": "address",
          "name": "to",
          "type": "address"
        },
        {
          "internalType": "uint256",
          "name": "tokenId",
          "type": "uint256"
        }
      ],
      "name": "approve",
      "outputs": [],
      "stateMutability": "nonpayable",
      "type": "function"
    },
    {
      "inputs": [
        {
          "internalType": "address",
          "name": "owner",
          "type": "address"
        }
      ],
      "name": "balanceOf",
      "outputs": [
        {
          "internalType": "uint256",
          "name": "",
          "type": "uint256"
        }
      ],
      "stateMutability": "view",
      "type": "function",
      "constant": true
    },
    {
      "inputs": [],
      "name": "baseURI",
      "outputs": [
        {
          "internalType": "string",
          "name": "",
          "type": "string"
        }
      ],
      "stateMutability": "view",
      "type": "function",
      "constant": true
    },
    {
      "inputs": [],
      "name": "cost",
      "outputs": [
        {
          "internalType": "uint256",
          "name": "",
          "type": "uint256"
        }
      ],
      "stateMutability": "view",
      "type": "function",
      "constant": true
    },
    {
      "inputs": [
        {
          "internalType": "string",
          "name": "",
          "type": "string"
        }
      ],
      "name": "existingURIs",
      "outputs": [
        {
          "internalType": "uint8",
          "name": "",
          "type": "uint8"
        }
      ],
      "stateMutability": "view",
      "type": "function",
      "constant": true
    },
    {
      "inputs": [
        {
          "internalType": "uint256",
          "name": "tokenId",
          "type": "uint256"
        }
      ],
      "name": "getApproved",
      "outputs": [
        {
          "internalType": "address",
          "name": "",
          "type": "address"
        }
      ],
      "stateMutability": "view",
      "type": "function",
      "constant": true
    },
    {
      "inputs": [
        {
          "internalType": "address",
          "name": "owner",
          "type": "address"
        },
        {
          "internalType": "address",
          "name": "operator",
          "type": "address"
        }
      ],
      "name": "isApprovedForAll",
      "outputs": [
        {
          "internalType": "bool",
          "name": "",
          "type": "bool"
        }
      ],
      "stateMutability": "view",
      "type": "function",
      "constant": true
    },
    {
      "inputs": [],
      "name": "maxSupply",
      "outputs": [
        {
          "internalType": "uint256",
          "name": "",
          "type": "uint256"
        }
      ],
      "stateMutability": "view",
      "type": "function",
      "constant": true
    },
    {
      "inputs": [],
      "name": "name",
      "outputs": [
        {
          "internalType": "string",
          "name": "",
          "type": "string"
        }
      ],
      "stateMutability": "view",
      "type": "function",
      "constant": true
    },
    {
      "inputs": [],
      "name": "owner",
      "outputs": [
        {
          "internalType": "address",
          "name": "",
          "type": "address"
        }
      ],
      "stateMutability": "view",
      "type": "function",
      "constant": true
    },
    {
      "inputs": [
        {
          "internalType": "uint256",
          "name": "tokenId",
          "type": "uint256"
        }
      ],
      "name": "ownerOf",
      "outputs": [
        {
          "internalType": "address",
          "name": "",
          "type": "address"
        }
      ],
      "stateMutability": "view",
      "type": "function",
      "constant": true
    },
    {
      "inputs": [],
      "name": "renounceOwnership",
      "outputs": [],
      "stateMutability": "nonpayable",
      "type": "function"
    },
    {
      "inputs": [
        {
          "internalType": "address",
          "name": "from",
          "type": "address"
        },
        {
          "internalType": "address",
          "name": "to",
          "type": "address"
        },
        {
          "internalType": "uint256",
          "name": "tokenId",
          "type": "uint256"
        }
      ],
      "name": "safeTransferFrom",
      "outputs": [],
      "stateMutability": "payable",
      "type": "function",
      "payable": true
    },
    {
      "inputs": [
        {
          "internalType": "address",
          "name": "from",
          "type": "address"
        },
        {
          "internalType": "address",
          "name": "to",
          "type": "address"
        },
        {
          "internalType": "uint256",
          "name": "tokenId",
          "type": "uint256"
        },
        {
          "internalType": "bytes",
          "name": "_data",
          "type": "bytes"
        }
      ],
      "name": "safeTransferFrom",
      "outputs": [],
      "stateMutability": "payable",
      "type": "function",
      "payable": true
    },
    {
      "inputs": [
        {
          "internalType": "address",
          "name": "operator",
          "type": "address"
        },
        {
          "internalType": "bool",
          "name": "approved",
          "type": "bool"
        }
      ],
      "name": "setApprovalForAll",
      "outputs": [],
      "stateMutability": "nonpayable",
      "type": "function"
    },
    {
      "inputs": [],
      "name": "supply",
      "outputs": [
        {
          "internalType": "uint256",
          "name": "",
          "type": "uint256"
        }
      ],
      "stateMutability": "view",
      "type": "function",
      "constant": true
    },
    {
      "inputs": [
        {
          "internalType": "bytes4",
          "name": "interfaceId",
          "type": "bytes4"
        }
      ],
      "name": "supportsInterface",
      "outputs": [
        {
          "internalType": "bool",
          "name": "",
          "type": "bool"
        }
      ],
      "stateMutability": "view",
      "type": "function",
      "constant": true
    },
    {
      "inputs": [],
      "name": "symbol",
      "outputs": [
        {
          "internalType": "string",
          "name": "",
          "type": "string"
        }
      ],
      "stateMutability": "view",
      "type": "function",
      "constant": true
    },
    {
      "inputs": [
        {
          "internalType": "uint256",
          "name": "index",
          "type": "uint256"
        }
      ],
      "name": "tokenByIndex",
      "outputs": [
        {
          "internalType": "uint256",
          "name": "",
          "type": "uint256"
        }
      ],
      "stateMutability": "view",
      "type": "function",
      "constant": true
    },
    {
      "inputs": [
        {
          "internalType": "address",
          "name": "owner",
          "type": "address"
        },
        {
          "internalType": "uint256",
          "name": "index",
          "type": "uint256"
        }
      ],
      "name": "tokenOfOwnerByIndex",
      "outputs": [
        {
          "internalType": "uint256",
          "name": "",
          "type": "uint256"
        }
      ],
      "stateMutability": "view",
      "type": "function",
      "constant": true
    },
    {
      "inputs": [
        {
          "internalType": "uint256",
          "name": "tokenId",
          "type": "uint256"
        }
      ],
      "name": "tokenURI",
      "outputs": [
        {
          "internalType": "string",
          "name": "",
          "type": "string"
        }
      ],
      "stateMutability": "view",
      "type": "function",
      "constant": true
    },
    {
      "inputs": [],
      "name": "totalSupply",
      "outputs": [
        {
          "internalType": "uint256",
          "name": "",
          "type": "uint256"
        }
      ],
      "stateMutability": "view",
      "type": "function",
      "constant": true
    },
    {
      "inputs": [
        {
          "internalType": "address",
          "name": "from",
          "type": "address"
        },
        {
          "internalType": "address",
          "name": "to",
          "type": "address"
        },
        {
          "internalType": "uint256",
          "name": "tokenId",
          "type": "uint256"
        }
      ],
      "name": "transferFrom",
      "outputs": [],
      "stateMutability": "payable",
      "type": "function",
      "payable": true
    },
    {
      "inputs": [
        {
          "internalType": "address",
          "name": "newOwner",
          "type": "address"
        }
      ],
      "name": "transferOwnership",
      "outputs": [],
      "stateMutability": "nonpayable",
      "type": "function"
    },
    {
      "inputs": [],
      "name": "payToMint",
      "outputs": [],
      "stateMutability": "payable",
      "type": "function",
      "payable": true
    },
    {
      "inputs": [],
      "name": "getMintedNFTs",
      "outputs": [
        {
          "components": [
            {
              "internalType": "uint256",
              "name": "id",
              "type": "uint256"
            },
            {
              "internalType": "address",
              "name": "from",
              "type": "address"
            },
            {
              "internalType": "address",
              "name": "to",
              "type": "address"
            },
            {
              "internalType": "uint256",
              "name": "cost",
              "type": "uint256"
            },
            {
              "internalType": "string",
              "name": "metadataURI",
              "type": "string"
            },
            {
              "internalType": "uint256",
              "name": "timestamp",
              "type": "uint256"
            }
          ],
          "internalType": "struct Adulam.SaleStruct[]",
          "name": "",
          "type": "tuple[]"
        }
      ],
      "stateMutability": "view",
      "type": "function",
      "constant": true
    }
  ],
  "bytecode": "0x6080604052662386f26fc10000600c556064600d553480156200002157600080fd5b506040516200471e3803806200471e8339818101604052810190620000479190620003fd565b8282816000908051906020019062000061929190620001b0565b5080600190805190602001906200007a929190620001b0565b5050506200009d62000091620000d560201b60201c565b620000dd60201b60201c565b620000ad620001a360201b60201c565b600e8190555080600f9080519060200190620000cb929190620001b0565b505050506200051b565b600033905090565b6000600a60009054906101000a900473ffffffffffffffffffffffffffffffffffffffff16905081600a60006101000a81548173ffffffffffffffffffffffffffffffffffffffff021916908373ffffffffffffffffffffffffffffffffffffffff1602179055508173ffffffffffffffffffffffffffffffffffffffff168173ffffffffffffffffffffffffffffffffffffffff167f8be0079c531659141344cd1fd0a4f28419497f9722a3daafe3b4186f6b6457e060405160405180910390a35050565b6000600880549050905090565b828054620001be90620004e5565b90600052602060002090601f016020900481019282620001e257600085556200022e565b82601f10620001fd57805160ff19168380011785556200022e565b828001600101855582156200022e579182015b828111156200022d57825182559160200191906001019062000210565b5b5090506200023d919062000241565b5090565b5b808211156200025c57600081600090555060010162000242565b5090565b6000604051905090565b600080fd5b600080fd5b600080fd5b600080fd5b6000601f19601f8301169050919050565b7f4e487b7100000000000000000000000000000000000000000000000000000000600052604160045260246000fd5b620002c9826200027e565b810181811067ffffffffffffffff82111715620002eb57620002ea6200028f565b5b80604052505050565b60006200030062000260565b90506200030e8282620002be565b919050565b600067ffffffffffffffff8211156200033157620003306200028f565b5b6200033c826200027e565b9050602081019050919050565b60005b83811015620003695780820151818401526020810190506200034c565b8381111562000379576000848401525b50505050565b600062000396620003908462000313565b620002f4565b905082815260208101848484011115620003b557620003b462000279565b5b620003c284828562000349565b509392505050565b600082601f830112620003e257620003e162000274565b5b8151620003f48482602086016200037f565b91505092915050565b6000806000606084860312156200041957620004186200026a565b5b600084015167ffffffffffffffff8111156200043a57620004396200026f565b5b6200044886828701620003ca565b935050602084015167ffffffffffffffff8111156200046c576200046b6200026f565b5b6200047a86828701620003ca565b925050604084015167ffffffffffffffff8111156200049e576200049d6200026f565b5b620004ac86828701620003ca565b9150509250925092565b7f4e487b7100000000000000000000000000000000000000000000000000000000600052602260045260246000fd5b60006002820490506001821680620004fe57607f821691505b60208210811415620005155762000514620004b6565b5b50919050565b6141f3806200052b6000396000f3fe6080604052600436106101815760003560e01c80636c0360eb116100d1578063a22cb4651161008a578063d5abeb0111610064578063d5abeb0114610550578063e985e9c51461057b578063f2fde38b146105b8578063f37971df146105e157610181565b8063a22cb465146104ce578063b88d4fde146104f7578063c87b56dd1461051357610181565b80636c0360eb146103ce57806370a08231146103f9578063715018a61461043657806377bf44ea1461044d5780638da5cb5b1461047857806395d89b41146104a357610181565b806318160ddd1161013e57806342842e0e1161011857806342842e0e1461032e5780634f6ccce71461034a578063509c7180146103875780636352211e1461039157610181565b806318160ddd146102aa57806323b872dd146102d55780632f745c59146102f157610181565b806301ffc9a714610186578063047fc9aa146101c357806306fdde03146101ee578063081812fc14610219578063095ea7b31461025657806313faede61461027f575b600080fd5b34801561019257600080fd5b506101ad60048036038101906101a89190612936565b61061e565b6040516101ba919061297e565b60405180910390f35b3480156101cf57600080fd5b506101d8610698565b6040516101e591906129b2565b60405180910390f35b3480156101fa57600080fd5b5061020361069e565b6040516102109190612a66565b60405180910390f35b34801561022557600080fd5b50610240600480360381019061023b9190612ab4565b610730565b60405161024d9190612b22565b60405180910390f35b34801561026257600080fd5b5061027d60048036038101906102789190612b69565b6107b5565b005b34801561028b57600080fd5b506102946108cd565b6040516102a191906129b2565b60405180910390f35b3480156102b657600080fd5b506102bf6108d3565b6040516102cc91906129b2565b60405180910390f35b6102ef60048036038101906102ea9190612ba9565b6108e0565b005b3480156102fd57600080fd5b5061031860048036038101906103139190612b69565b610940565b60405161032591906129b2565b60405180910390f35b61034860048036038101906103439190612ba9565b6109e5565b005b34801561035657600080fd5b50610371600480360381019061036c9190612ab4565b610a05565b60405161037e91906129b2565b60405180910390f35b61038f610a76565b005b34801561039d57600080fd5b506103b860048036038101906103b39190612ab4565b610dd7565b6040516103c59190612b22565b60405180910390f35b3480156103da57600080fd5b506103e3610e89565b6040516103f09190612a66565b60405180910390f35b34801561040557600080fd5b50610420600480360381019061041b9190612bfc565b610f17565b60405161042d91906129b2565b60405180910390f35b34801561044257600080fd5b5061044b610fcf565b005b34801561045957600080fd5b50610462611057565b60405161046f9190612ddc565b60405180910390f35b34801561048457600080fd5b5061048d611212565b60405161049a9190612b22565b60405180910390f35b3480156104af57600080fd5b506104b861123c565b6040516104c59190612a66565b60405180910390f35b3480156104da57600080fd5b506104f560048036038101906104f09190612e2a565b6112ce565b005b610511600480360381019061050c9190612f9f565b6112e4565b005b34801561051f57600080fd5b5061053a60048036038101906105359190612ab4565b611346565b6040516105479190612a66565b60405180910390f35b34801561055c57600080fd5b506105656113ed565b60405161057291906129b2565b60405180910390f35b34801561058757600080fd5b506105a2600480360381019061059d9190613022565b6113f3565b6040516105af919061297e565b60405180910390f35b3480156105c457600080fd5b506105df60048036038101906105da9190612bfc565b611487565b005b3480156105ed57600080fd5b5061060860048036038101906106039190613103565b61157f565b6040516106159190613168565b60405180910390f35b60007f780e9d63000000000000000000000000000000000000000000000000000000007bffffffffffffffffffffffffffffffffffffffffffffffffffffffff1916827bffffffffffffffffffffffffffffffffffffffffffffffffffffffff191614806106915750610690826115b5565b5b9050919050565b600e5481565b6060600080546106ad906131b2565b80601f01602080910402602001604051908101604052809291908181526020018280546106d9906131b2565b80156107265780601f106106fb57610100808354040283529160200191610726565b820191906000526020600020905b81548152906001019060200180831161070957829003601f168201915b5050505050905090565b600061073b82611697565b61077a576040517f08c379a000000000000000000000000000000000000000000000000000000000815260040161077190613256565b60405180910390fd5b6004600083815260200190815260200160002060009054906101000a900473ffffffffffffffffffffffffffffffffffffffff169050919050565b60006107c082610dd7565b90508073ffffffffffffffffffffffffffffffffffffffff168373ffffffffffffffffffffffffffffffffffffffff161415610831576040517f08c379a0000000000000000000000000000000000000000000000000000000008152600401610828906132e8565b60405180910390fd5b8073ffffffffffffffffffffffffffffffffffffffff16610850611703565b73ffffffffffffffffffffffffffffffffffffffff16148061087f575061087e81610879611703565b6113f3565b5b6108be576040517f08c379a00000000000000000000000000000000000000000000000000000000081526004016108b59061337a565b60405180910390fd5b6108c8838361170b565b505050565b600c5481565b6000600880549050905090565b6108f16108eb611703565b826117c4565b610930576040517f08c379a00000000000000000000000000000000000000000000000000000000081526004016109279061340c565b60405180910390fd5b61093b8383836118a2565b505050565b600061094b83610f17565b821061098c576040517f08c379a00000000000000000000000000000000000000000000000000000000081526004016109839061349e565b60405180910390fd5b600660008473ffffffffffffffffffffffffffffffffffffffff1673ffffffffffffffffffffffffffffffffffffffff168152602001908152602001600020600083815260200190815260200160002054905092915050565b610a00838383604051806020016040528060008152506112e4565b505050565b6000610a0f6108d3565b8210610a50576040517f08c379a0000000000000000000000000000000000000000000000000000000008152600401610a4790613530565b60405180910390fd5b60088281548110610a6457610a63613550565b5b90600052602060002001549050919050565b600d54600e541115610abd576040517f08c379a0000000000000000000000000000000000000000000000000000000008152600401610ab4906135f1565b60405180910390fd5b60003411610b00576040517f08c379a0000000000000000000000000000000000000000000000000000000008152600401610af79061365d565b60405180910390fd5b610b08611212565b73ffffffffffffffffffffffffffffffffffffffff163373ffffffffffffffffffffffffffffffffffffffff161415610b76576040517f08c379a0000000000000000000000000000000000000000000000000000000008152600401610b6d906136c9565b60405180910390fd5b6001600e6000828254610b899190613718565b925050819055506000610bb1610bac6001600e54610ba79190613718565b611afe565b611c5f565b90506001600b82604051610bc591906137aa565b908152602001604051809103902060006101000a81548160ff021916908360ff160217905550610bfc610bf6611212565b34611c8b565b60106040518060c00160405280600e5481526020013373ffffffffffffffffffffffffffffffffffffffff168152602001610c35611212565b73ffffffffffffffffffffffffffffffffffffffff1681526020013481526020018381526020014281525090806001815401808255809150506001900390600052602060002090600602016000909190919091506000820151816000015560208201518160010160006101000a81548173ffffffffffffffffffffffffffffffffffffffff021916908373ffffffffffffffffffffffffffffffffffffffff16021790555060408201518160020160006101000a81548173ffffffffffffffffffffffffffffffffffffffff021916908373ffffffffffffffffffffffffffffffffffffffff160217905550606082015181600301556080820151816004019080519060200190610d47929190612827565b5060a082015181600501555050610d5c611212565b73ffffffffffffffffffffffffffffffffffffffff163373ffffffffffffffffffffffffffffffffffffffff167f1bdfbffaa8395b26dd08fc601508f9d05fedf05d1494416e4077df529707fb7b600e54348542604051610dc094939291906137c1565b60405180910390a3610dd433600e54611d06565b50565b6000806002600084815260200190815260200160002060009054906101000a900473ffffffffffffffffffffffffffffffffffffffff169050600073ffffffffffffffffffffffffffffffffffffffff168173ffffffffffffffffffffffffffffffffffffffff161415610e80576040517f08c379a0000000000000000000000000000000000000000000000000000000008152600401610e779061387f565b60405180910390fd5b80915050919050565b600f8054610e96906131b2565b80601f0160208091040260200160405190810160405280929190818152602001828054610ec2906131b2565b8015610f0f5780601f10610ee457610100808354040283529160200191610f0f565b820191906000526020600020905b815481529060010190602001808311610ef257829003601f168201915b505050505081565b60008073ffffffffffffffffffffffffffffffffffffffff168273ffffffffffffffffffffffffffffffffffffffff161415610f88576040517f08c379a0000000000000000000000000000000000000000000000000000000008152600401610f7f90613911565b60405180910390fd5b600360008373ffffffffffffffffffffffffffffffffffffffff1673ffffffffffffffffffffffffffffffffffffffff168152602001908152602001600020549050919050565b610fd7611703565b73ffffffffffffffffffffffffffffffffffffffff16610ff5611212565b73ffffffffffffffffffffffffffffffffffffffff161461104b576040517f08c379a00000000000000000000000000000000000000000000000000000000081526004016110429061397d565b60405180910390fd5b6110556000611d24565b565b60606010805480602002602001604051908101604052809291908181526020016000905b8282101561120957838290600052602060002090600602016040518060c0016040529081600082015481526020016001820160009054906101000a900473ffffffffffffffffffffffffffffffffffffffff1673ffffffffffffffffffffffffffffffffffffffff1673ffffffffffffffffffffffffffffffffffffffff1681526020016002820160009054906101000a900473ffffffffffffffffffffffffffffffffffffffff1673ffffffffffffffffffffffffffffffffffffffff1673ffffffffffffffffffffffffffffffffffffffff1681526020016003820154815260200160048201805461116e906131b2565b80601f016020809104026020016040519081016040528092919081815260200182805461119a906131b2565b80156111e75780601f106111bc576101008083540402835291602001916111e7565b820191906000526020600020905b8154815290600101906020018083116111ca57829003601f168201915b505050505081526020016005820154815250508152602001906001019061107b565b50505050905090565b6000600a60009054906101000a900473ffffffffffffffffffffffffffffffffffffffff16905090565b60606001805461124b906131b2565b80601f0160208091040260200160405190810160405280929190818152602001828054611277906131b2565b80156112c45780601f10611299576101008083540402835291602001916112c4565b820191906000526020600020905b8154815290600101906020018083116112a757829003601f168201915b5050505050905090565b6112e06112d9611703565b8383611dea565b5050565b6112f56112ef611703565b836117c4565b611334576040517f08c379a000000000000000000000000000000000000000000000000000000000815260040161132b9061340c565b60405180910390fd5b61134084848484611f57565b50505050565b606061135182611697565b611390576040517f08c379a000000000000000000000000000000000000000000000000000000000815260040161138790613a0f565b60405180910390fd5b600061139a611fb3565b905060008151116113ba57604051806020016040528060008152506113e5565b806113c484611afe565b6040516020016113d5929190613a2f565b6040516020818303038152906040525b915050919050565b600d5481565b6000600560008473ffffffffffffffffffffffffffffffffffffffff1673ffffffffffffffffffffffffffffffffffffffff16815260200190815260200160002060008373ffffffffffffffffffffffffffffffffffffffff1673ffffffffffffffffffffffffffffffffffffffff16815260200190815260200160002060009054906101000a900460ff16905092915050565b61148f611703565b73ffffffffffffffffffffffffffffffffffffffff166114ad611212565b73ffffffffffffffffffffffffffffffffffffffff1614611503576040517f08c379a00000000000000000000000000000000000000000000000000000000081526004016114fa9061397d565b60405180910390fd5b600073ffffffffffffffffffffffffffffffffffffffff168173ffffffffffffffffffffffffffffffffffffffff161415611573576040517f08c379a000000000000000000000000000000000000000000000000000000000815260040161156a90613ac5565b60405180910390fd5b61157c81611d24565b50565b600b818051602081018201805184825260208301602085012081835280955050505050506000915054906101000a900460ff1681565b60007f80ac58cd000000000000000000000000000000000000000000000000000000007bffffffffffffffffffffffffffffffffffffffffffffffffffffffff1916827bffffffffffffffffffffffffffffffffffffffffffffffffffffffff1916148061168057507f5b5e139f000000000000000000000000000000000000000000000000000000007bffffffffffffffffffffffffffffffffffffffffffffffffffffffff1916827bffffffffffffffffffffffffffffffffffffffffffffffffffffffff1916145b80611690575061168f82611fca565b5b9050919050565b60008073ffffffffffffffffffffffffffffffffffffffff166002600084815260200190815260200160002060009054906101000a900473ffffffffffffffffffffffffffffffffffffffff1673ffffffffffffffffffffffffffffffffffffffff1614159050919050565b600033905090565b816004600083815260200190815260200160002060006101000a81548173ffffffffffffffffffffffffffffffffffffffff021916908373ffffffffffffffffffffffffffffffffffffffff160217905550808273ffffffffffffffffffffffffffffffffffffffff1661177e83610dd7565b73ffffffffffffffffffffffffffffffffffffffff167f8c5be1e5ebec7d5bd14f71427d1e84f3dd0314c0f7b2291e5b200ac8c7c3b92560405160405180910390a45050565b60006117cf82611697565b61180e576040517f08c379a000000000000000000000000000000000000000000000000000000000815260040161180590613b57565b60405180910390fd5b600061181983610dd7565b90508073ffffffffffffffffffffffffffffffffffffffff168473ffffffffffffffffffffffffffffffffffffffff16148061188857508373ffffffffffffffffffffffffffffffffffffffff1661187084610730565b73ffffffffffffffffffffffffffffffffffffffff16145b80611899575061189881856113f3565b5b91505092915050565b8273ffffffffffffffffffffffffffffffffffffffff166118c282610dd7565b73ffffffffffffffffffffffffffffffffffffffff1614611918576040517f08c379a000000000000000000000000000000000000000000000000000000000815260040161190f90613be9565b60405180910390fd5b600073ffffffffffffffffffffffffffffffffffffffff168273ffffffffffffffffffffffffffffffffffffffff161415611988576040517f08c379a000000000000000000000000000000000000000000000000000000000815260040161197f90613c7b565b60405180910390fd5b611993838383612034565b61199e60008261170b565b6001600360008573ffffffffffffffffffffffffffffffffffffffff1673ffffffffffffffffffffffffffffffffffffffff16815260200190815260200160002060008282546119ee9190613c9b565b925050819055506001600360008473ffffffffffffffffffffffffffffffffffffffff1673ffffffffffffffffffffffffffffffffffffffff1681526020019081526020016000206000828254611a459190613718565b92505081905550816002600083815260200190815260200160002060006101000a81548173ffffffffffffffffffffffffffffffffffffffff021916908373ffffffffffffffffffffffffffffffffffffffff160217905550808273ffffffffffffffffffffffffffffffffffffffff168473ffffffffffffffffffffffffffffffffffffffff167fddf252ad1be2c89b69c2b068fc378daa952ba7f163c4a11628f55a4df523b3ef60405160405180910390a4505050565b60606000821415611b46576040518060400160405280600181526020017f30000000000000000000000000000000000000000000000000000000000000008152509050611c5a565b600082905060005b60008214611b78578080611b6190613ccf565b915050600a82611b719190613d47565b9150611b4e565b60008167ffffffffffffffff811115611b9457611b93612e74565b5b6040519080825280601f01601f191660200182016040528015611bc65781602001600182028036833780820191505090505b5090505b60008514611c5357600182611bdf9190613c9b565b9150600a85611bee9190613d78565b6030611bfa9190613718565b60f81b818381518110611c1057611c0f613550565b5b60200101907effffffffffffffffffffffffffffffffffffffffffffffffffffffffffffff1916908160001a905350600a85611c4c9190613d47565b9450611bca565b8093505050505b919050565b6060600f82604051602001611c75929190613e63565b6040516020818303038152906040529050919050565b60008273ffffffffffffffffffffffffffffffffffffffff1682604051611cb190613ec0565b60006040518083038185875af1925050503d8060008114611cee576040519150601f19603f3d011682016040523d82523d6000602084013e611cf3565b606091505b5050905080611d0157600080fd5b505050565b611d20828260405180602001604052806000815250612148565b5050565b6000600a60009054906101000a900473ffffffffffffffffffffffffffffffffffffffff16905081600a60006101000a81548173ffffffffffffffffffffffffffffffffffffffff021916908373ffffffffffffffffffffffffffffffffffffffff1602179055508173ffffffffffffffffffffffffffffffffffffffff168173ffffffffffffffffffffffffffffffffffffffff167f8be0079c531659141344cd1fd0a4f28419497f9722a3daafe3b4186f6b6457e060405160405180910390a35050565b8173ffffffffffffffffffffffffffffffffffffffff168373ffffffffffffffffffffffffffffffffffffffff161415611e59576040517f08c379a0000000000000000000000000000000000000000000000000000000008152600401611e5090613f21565b60405180910390fd5b80600560008573ffffffffffffffffffffffffffffffffffffffff1673ffffffffffffffffffffffffffffffffffffffff16815260200190815260200160002060008473ffffffffffffffffffffffffffffffffffffffff1673ffffffffffffffffffffffffffffffffffffffff16815260200190815260200160002060006101000a81548160ff0219169083151502179055508173ffffffffffffffffffffffffffffffffffffffff168373ffffffffffffffffffffffffffffffffffffffff167f17307eab39ab6107e8899845ad3d59bd9653f200f220920489ca2b5937696c3183604051611f4a919061297e565b60405180910390a3505050565b611f628484846118a2565b611f6e848484846121a3565b611fad576040517f08c379a0000000000000000000000000000000000000000000000000000000008152600401611fa490613fb3565b60405180910390fd5b50505050565b606060405180602001604052806000815250905090565b60007f01ffc9a7000000000000000000000000000000000000000000000000000000007bffffffffffffffffffffffffffffffffffffffffffffffffffffffff1916827bffffffffffffffffffffffffffffffffffffffffffffffffffffffff1916149050919050565b61203f83838361232b565b600073ffffffffffffffffffffffffffffffffffffffff168373ffffffffffffffffffffffffffffffffffffffff1614156120825761207d81612330565b6120c1565b8173ffffffffffffffffffffffffffffffffffffffff168373ffffffffffffffffffffffffffffffffffffffff16146120c0576120bf8382612379565b5b5b600073ffffffffffffffffffffffffffffffffffffffff168273ffffffffffffffffffffffffffffffffffffffff161415612104576120ff816124e6565b612143565b8273ffffffffffffffffffffffffffffffffffffffff168273ffffffffffffffffffffffffffffffffffffffff16146121425761214182826125b7565b5b5b505050565b6121528383612636565b61215f60008484846121a3565b61219e576040517f08c379a000000000000000000000000000000000000000000000000000000000815260040161219590613fb3565b60405180910390fd5b505050565b60006121c48473ffffffffffffffffffffffffffffffffffffffff16612804565b1561231e578373ffffffffffffffffffffffffffffffffffffffff1663150b7a026121ed611703565b8786866040518563ffffffff1660e01b815260040161220f9493929190614028565b6020604051808303816000875af192505050801561224b57506040513d601f19601f820116820180604052508101906122489190614089565b60015b6122ce573d806000811461227b576040519150601f19603f3d011682016040523d82523d6000602084013e612280565b606091505b506000815114156122c6576040517f08c379a00000000000000000000000000000000000000000000000000000000081526004016122bd90613fb3565b60405180910390fd5b805181602001fd5b63150b7a0260e01b7bffffffffffffffffffffffffffffffffffffffffffffffffffffffff1916817bffffffffffffffffffffffffffffffffffffffffffffffffffffffff191614915050612323565b600190505b949350505050565b505050565b6008805490506009600083815260200190815260200160002081905550600881908060018154018082558091505060019003906000526020600020016000909190919091505550565b6000600161238684610f17565b6123909190613c9b565b9050600060076000848152602001908152602001600020549050818114612475576000600660008673ffffffffffffffffffffffffffffffffffffffff1673ffffffffffffffffffffffffffffffffffffffff168152602001908152602001600020600084815260200190815260200160002054905080600660008773ffffffffffffffffffffffffffffffffffffffff1673ffffffffffffffffffffffffffffffffffffffff168152602001908152602001600020600084815260200190815260200160002081905550816007600083815260200190815260200160002081905550505b6007600084815260200190815260200160002060009055600660008573ffffffffffffffffffffffffffffffffffffffff1673ffffffffffffffffffffffffffffffffffffffff16815260200190815260200160002060008381526020019081526020016000206000905550505050565b600060016008805490506124fa9190613c9b565b905060006009600084815260200190815260200160002054905060006008838154811061252a57612529613550565b5b90600052602060002001549050806008838154811061254c5761254b613550565b5b90600052602060002001819055508160096000838152602001908152602001600020819055506009600085815260200190815260200160002060009055600880548061259b5761259a6140b6565b5b6001900381819060005260206000200160009055905550505050565b60006125c283610f17565b905081600660008573ffffffffffffffffffffffffffffffffffffffff1673ffffffffffffffffffffffffffffffffffffffff168152602001908152602001600020600083815260200190815260200160002081905550806007600084815260200190815260200160002081905550505050565b600073ffffffffffffffffffffffffffffffffffffffff168273ffffffffffffffffffffffffffffffffffffffff1614156126a6576040517f08c379a000000000000000000000000000000000000000000000000000000000815260040161269d90614131565b60405180910390fd5b6126af81611697565b156126ef576040517f08c379a00000000000000000000000000000000000000000000000000000000081526004016126e69061419d565b60405180910390fd5b6126fb60008383612034565b6001600360008473ffffffffffffffffffffffffffffffffffffffff1673ffffffffffffffffffffffffffffffffffffffff168152602001908152602001600020600082825461274b9190613718565b92505081905550816002600083815260200190815260200160002060006101000a81548173ffffffffffffffffffffffffffffffffffffffff021916908373ffffffffffffffffffffffffffffffffffffffff160217905550808273ffffffffffffffffffffffffffffffffffffffff16600073ffffffffffffffffffffffffffffffffffffffff167fddf252ad1be2c89b69c2b068fc378daa952ba7f163c4a11628f55a4df523b3ef60405160405180910390a45050565b6000808273ffffffffffffffffffffffffffffffffffffffff163b119050919050565b828054612833906131b2565b90600052602060002090601f016020900481019282612855576000855561289c565b82601f1061286e57805160ff191683800117855561289c565b8280016001018555821561289c579182015b8281111561289b578251825591602001919060010190612880565b5b5090506128a991906128ad565b5090565b5b808211156128c65760008160009055506001016128ae565b5090565b6000604051905090565b600080fd5b600080fd5b60007fffffffff0000000000000000000000000000000000000000000000000000000082169050919050565b612913816128de565b811461291e57600080fd5b50565b6000813590506129308161290a565b92915050565b60006020828403121561294c5761294b6128d4565b5b600061295a84828501612921565b91505092915050565b60008115159050919050565b61297881612963565b82525050565b6000602082019050612993600083018461296f565b92915050565b6000819050919050565b6129ac81612999565b82525050565b60006020820190506129c760008301846129a3565b92915050565b600081519050919050565b600082825260208201905092915050565b60005b83811015612a075780820151818401526020810190506129ec565b83811115612a16576000848401525b50505050565b6000601f19601f8301169050919050565b6000612a38826129cd565b612a4281856129d8565b9350612a528185602086016129e9565b612a5b81612a1c565b840191505092915050565b60006020820190508181036000830152612a808184612a2d565b905092915050565b612a9181612999565b8114612a9c57600080fd5b50565b600081359050612aae81612a88565b92915050565b600060208284031215612aca57612ac96128d4565b5b6000612ad884828501612a9f565b91505092915050565b600073ffffffffffffffffffffffffffffffffffffffff82169050919050565b6000612b0c82612ae1565b9050919050565b612b1c81612b01565b82525050565b6000602082019050612b376000830184612b13565b92915050565b612b4681612b01565b8114612b5157600080fd5b50565b600081359050612b6381612b3d565b92915050565b60008060408385031215612b8057612b7f6128d4565b5b6000612b8e85828601612b54565b9250506020612b9f85828601612a9f565b9150509250929050565b600080600060608486031215612bc257612bc16128d4565b5b6000612bd086828701612b54565b9350506020612be186828701612b54565b9250506040612bf286828701612a9f565b9150509250925092565b600060208284031215612c1257612c116128d4565b5b6000612c2084828501612b54565b91505092915050565b600081519050919050565b600082825260208201905092915050565b6000819050602082019050919050565b612c5e81612999565b82525050565b612c6d81612b01565b82525050565b600082825260208201905092915050565b6000612c8f826129cd565b612c998185612c73565b9350612ca98185602086016129e9565b612cb281612a1c565b840191505092915050565b600060c083016000830151612cd56000860182612c55565b506020830151612ce86020860182612c64565b506040830151612cfb6040860182612c64565b506060830151612d0e6060860182612c55565b5060808301518482036080860152612d268282612c84565b91505060a0830151612d3b60a0860182612c55565b508091505092915050565b6000612d528383612cbd565b905092915050565b6000602082019050919050565b6000612d7282612c29565b612d7c8185612c34565b935083602082028501612d8e85612c45565b8060005b85811015612dca5784840389528151612dab8582612d46565b9450612db683612d5a565b925060208a01995050600181019050612d92565b50829750879550505050505092915050565b60006020820190508181036000830152612df68184612d67565b905092915050565b612e0781612963565b8114612e1257600080fd5b50565b600081359050612e2481612dfe565b92915050565b60008060408385031215612e4157612e406128d4565b5b6000612e4f85828601612b54565b9250506020612e6085828601612e15565b9150509250929050565b600080fd5b600080fd5b7f4e487b7100000000000000000000000000000000000000000000000000000000600052604160045260246000fd5b612eac82612a1c565b810181811067ffffffffffffffff82111715612ecb57612eca612e74565b5b80604052505050565b6000612ede6128ca565b9050612eea8282612ea3565b919050565b600067ffffffffffffffff821115612f0a57612f09612e74565b5b612f1382612a1c565b9050602081019050919050565b82818337600083830152505050565b6000612f42612f3d84612eef565b612ed4565b905082815260208101848484011115612f5e57612f5d612e6f565b5b612f69848285612f20565b509392505050565b600082601f830112612f8657612f85612e6a565b5b8135612f96848260208601612f2f565b91505092915050565b60008060008060808587031215612fb957612fb86128d4565b5b6000612fc787828801612b54565b9450506020612fd887828801612b54565b9350506040612fe987828801612a9f565b925050606085013567ffffffffffffffff81111561300a576130096128d9565b5b61301687828801612f71565b91505092959194509250565b60008060408385031215613039576130386128d4565b5b600061304785828601612b54565b925050602061305885828601612b54565b9150509250929050565b600067ffffffffffffffff82111561307d5761307c612e74565b5b61308682612a1c565b9050602081019050919050565b60006130a66130a184613062565b612ed4565b9050828152602081018484840111156130c2576130c1612e6f565b5b6130cd848285612f20565b509392505050565b600082601f8301126130ea576130e9612e6a565b5b81356130fa848260208601613093565b91505092915050565b600060208284031215613119576131186128d4565b5b600082013567ffffffffffffffff811115613137576131366128d9565b5b613143848285016130d5565b91505092915050565b600060ff82169050919050565b6131628161314c565b82525050565b600060208201905061317d6000830184613159565b92915050565b7f4e487b7100000000000000000000000000000000000000000000000000000000600052602260045260246000fd5b600060028204905060018216806131ca57607f821691505b602082108114156131de576131dd613183565b5b50919050565b7f4552433732313a20617070726f76656420717565727920666f72206e6f6e657860008201527f697374656e7420746f6b656e0000000000000000000000000000000000000000602082015250565b6000613240602c836129d8565b915061324b826131e4565b604082019050919050565b6000602082019050818103600083015261326f81613233565b9050919050565b7f4552433732313a20617070726f76616c20746f2063757272656e74206f776e6560008201527f7200000000000000000000000000000000000000000000000000000000000000602082015250565b60006132d26021836129d8565b91506132dd82613276565b604082019050919050565b60006020820190508181036000830152613301816132c5565b9050919050565b7f4552433732313a20617070726f76652063616c6c6572206973206e6f74206f7760008201527f6e6572206e6f7220617070726f76656420666f7220616c6c0000000000000000602082015250565b60006133646038836129d8565b915061336f82613308565b604082019050919050565b6000602082019050818103600083015261339381613357565b9050919050565b7f4552433732313a207472616e736665722063616c6c6572206973206e6f74206f60008201527f776e6572206e6f7220617070726f766564000000000000000000000000000000602082015250565b60006133f66031836129d8565b91506134018261339a565b604082019050919050565b60006020820190508181036000830152613425816133e9565b9050919050565b7f455243373231456e756d657261626c653a206f776e657220696e646578206f7560008201527f74206f6620626f756e6473000000000000000000000000000000000000000000602082015250565b6000613488602b836129d8565b91506134938261342c565b604082019050919050565b600060208201905081810360008301526134b78161347b565b9050919050565b7f455243373231456e756d657261626c653a20676c6f62616c20696e646578206f60008201527f7574206f6620626f756e64730000000000000000000000000000000000000000602082015250565b600061351a602c836129d8565b9150613525826134be565b604082019050919050565b600060208201905081810360008301526135498161350d565b9050919050565b7f4e487b7100000000000000000000000000000000000000000000000000000000600052603260045260246000fd5b7f536f7272792c20616c6c204e4654732068617665206265656e206d696e74656460008201527f2100000000000000000000000000000000000000000000000000000000000000602082015250565b60006135db6021836129d8565b91506135e68261357f565b604082019050919050565b6000602082019050818103600083015261360a816135ce565b9050919050565b7f457468657220746f6f206c6f7720666f72206d696e74696e6721000000000000600082015250565b6000613647601a836129d8565b915061365282613611565b602082019050919050565b600060208201905081810360008301526136768161363a565b9050919050565b7f54686973206973206e6f74207065726d69747465642100000000000000000000600082015250565b60006136b36016836129d8565b91506136be8261367d565b602082019050919050565b600060208201905081810360008301526136e2816136a6565b9050919050565b7f4e487b7100000000000000000000000000000000000000000000000000000000600052601160045260246000fd5b600061372382612999565b915061372e83612999565b9250827fffffffffffffffffffffffffffffffffffffffffffffffffffffffffffffffff03821115613763576137626136e9565b5b828201905092915050565b600081905092915050565b6000613784826129cd565b61378e818561376e565b935061379e8185602086016129e9565b80840191505092915050565b60006137b68284613779565b915081905092915050565b60006080820190506137d660008301876129a3565b6137e360208301866129a3565b81810360408301526137f58185612a2d565b905061380460608301846129a3565b95945050505050565b7f4552433732313a206f776e657220717565727920666f72206e6f6e657869737460008201527f656e7420746f6b656e0000000000000000000000000000000000000000000000602082015250565b60006138696029836129d8565b91506138748261380d565b604082019050919050565b600060208201905081810360008301526138988161385c565b9050919050565b7f4552433732313a2062616c616e636520717565727920666f7220746865207a6560008201527f726f206164647265737300000000000000000000000000000000000000000000602082015250565b60006138fb602a836129d8565b91506139068261389f565b604082019050919050565b6000602082019050818103600083015261392a816138ee565b9050919050565b7f4f776e61626c653a2063616c6c6572206973206e6f7420746865206f776e6572600082015250565b60006139676020836129d8565b915061397282613931565b602082019050919050565b600060208201905081810360008301526139968161395a565b9050919050565b7f4552433732314d657461646174613a2055524920717565727920666f72206e6f60008201527f6e6578697374656e7420746f6b656e0000000000000000000000000000000000602082015250565b60006139f9602f836129d8565b9150613a048261399d565b604082019050919050565b60006020820190508181036000830152613a28816139ec565b9050919050565b6000613a3b8285613779565b9150613a478284613779565b91508190509392505050565b7f4f776e61626c653a206e6577206f776e657220697320746865207a65726f206160008201527f6464726573730000000000000000000000000000000000000000000000000000602082015250565b6000613aaf6026836129d8565b9150613aba82613a53565b604082019050919050565b60006020820190508181036000830152613ade81613aa2565b9050919050565b7f4552433732313a206f70657261746f7220717565727920666f72206e6f6e657860008201527f697374656e7420746f6b656e0000000000000000000000000000000000000000602082015250565b6000613b41602c836129d8565b9150613b4c82613ae5565b604082019050919050565b60006020820190508181036000830152613b7081613b34565b9050919050565b7f4552433732313a207472616e73666572206f6620746f6b656e2074686174206960008201527f73206e6f74206f776e0000000000000000000000000000000000000000000000602082015250565b6000613bd36029836129d8565b9150613bde82613b77565b604082019050919050565b60006020820190508181036000830152613c0281613bc6565b9050919050565b7f4552433732313a207472616e7366657220746f20746865207a65726f2061646460008201527f7265737300000000000000000000000000000000000000000000000000000000602082015250565b6000613c656024836129d8565b9150613c7082613c09565b604082019050919050565b60006020820190508181036000830152613c9481613c58565b9050919050565b6000613ca682612999565b9150613cb183612999565b925082821015613cc457613cc36136e9565b5b828203905092915050565b6000613cda82612999565b91507fffffffffffffffffffffffffffffffffffffffffffffffffffffffffffffffff821415613d0d57613d0c6136e9565b5b600182019050919050565b7f4e487b7100000000000000000000000000000000000000000000000000000000600052601260045260246000fd5b6000613d5282612999565b9150613d5d83612999565b925082613d6d57613d6c613d18565b5b828204905092915050565b6000613d8382612999565b9150613d8e83612999565b925082613d9e57613d9d613d18565b5b828206905092915050565b60008190508160005260206000209050919050565b60008154613dcb816131b2565b613dd5818661376e565b94506001821660008114613df05760018114613e0157613e34565b60ff19831686528186019350613e34565b613e0a85613da9565b60005b83811015613e2c57815481890152600182019150602081019050613e0d565b838801955050505b50505092915050565b50565b6000613e4d60008361376e565b9150613e5882613e3d565b600082019050919050565b6000613e6f8285613dbe565b9150613e7a82613e40565b9150613e868284613779565b91508190509392505050565b600081905092915050565b6000613eaa600083613e92565b9150613eb582613e3d565b600082019050919050565b6000613ecb82613e9d565b9150819050919050565b7f4552433732313a20617070726f766520746f2063616c6c657200000000000000600082015250565b6000613f0b6019836129d8565b9150613f1682613ed5565b602082019050919050565b60006020820190508181036000830152613f3a81613efe565b9050919050565b7f4552433732313a207472616e7366657220746f206e6f6e20455243373231526560008201527f63656976657220696d706c656d656e7465720000000000000000000000000000602082015250565b6000613f9d6032836129d8565b9150613fa882613f41565b604082019050919050565b60006020820190508181036000830152613fcc81613f90565b9050919050565b600081519050919050565b600082825260208201905092915050565b6000613ffa82613fd3565b6140048185613fde565b93506140148185602086016129e9565b61401d81612a1c565b840191505092915050565b600060808201905061403d6000830187612b13565b61404a6020830186612b13565b61405760408301856129a3565b81810360608301526140698184613fef565b905095945050505050565b6000815190506140838161290a565b92915050565b60006020828403121561409f5761409e6128d4565b5b60006140ad84828501614074565b91505092915050565b7f4e487b7100000000000000000000000000000000000000000000000000000000600052603160045260246000fd5b7f4552433732313a206d696e7420746f20746865207a65726f2061646472657373600082015250565b600061411b6020836129d8565b9150614126826140e5565b602082019050919050565b6000602082019050818103600083015261414a8161410e565b9050919050565b7f4552433732313a20746f6b656e20616c7265616479206d696e74656400000000600082015250565b6000614187601c836129d8565b915061419282614151565b602082019050919050565b600060208201905081810360008301526141b68161417a565b905091905056fea2646970667358221220890874850ed1bd73da7add1988a60d891dd140a40652dcf468aa36e745892f2364736f6c634300080b0033",
  "immutableReferences": {},
  "source": "// SPDX-License-Identifier: MIT\r\npragma solidity >=0.7.0 <0.9.0;\r\n\r\nimport \"./ERC721.sol\";\r\nimport \"./ERC721Enumerable.sol\";\r\nimport \"@openzeppelin/contracts/access/Ownable.sol\";\r\n\r\ncontract Adulam is ERC721Enumerable, Ownable {\r\n    using Strings for uint256;\r\n\r\n    mapping(string => uint8) public existingURIs;\r\n    uint256 public cost = 0.01 ether;\r\n    uint256 public maxSupply = 100;\r\n    uint256 public supply;\r\n    string public baseURI;\r\n\r\n    event Sale(\r\n        uint256 id,\r\n        address indexed from,\r\n        address indexed to,\r\n        uint256 cost,\r\n        string metadataURI,\r\n        uint256 timestamp\r\n    );\r\n\r\n    struct SaleStruct {\r\n        uint256 id;\r\n        address from;\r\n        address to;\r\n        uint256 cost;\r\n        string metadataURI;\r\n        uint256 timestamp;\r\n    }\r\n\r\n    SaleStruct[] minted;\r\n\r\n    constructor(\r\n        string memory _name,\r\n        string memory _symbol,\r\n        string memory _baseURI\r\n    ) ERC721(_name, _symbol) {\r\n        supply = totalSupply();\r\n        baseURI = _baseURI;\r\n    }\r\n\r\n    function payToMint() public payable {\r\n        require(supply <= maxSupply, \"Sorry, all NFTs have been minted!\");\r\n        require(msg.value > 0 ether, \"Ether too low for minting!\");\r\n        require(msg.sender != owner(), \"This is not permitted!\");\r\n\r\n        supply += 1;\r\n        string memory URI = concat(Strings.toString(supply + 1));\r\n        existingURIs[URI] = 1;\r\n\r\n        sendMoneyTo(owner(), msg.value);\r\n\r\n        minted.push(\r\n            SaleStruct(\r\n                supply,\r\n                msg.sender,\r\n                owner(),\r\n                msg.value,\r\n                URI,\r\n                block.timestamp\r\n            )\r\n        );\r\n\r\n        emit Sale(supply, msg.sender, owner(), msg.value, URI, block.timestamp);\r\n        _safeMint(msg.sender, supply);\r\n    }\r\n\r\n    function getMintedNFTs() public view returns (SaleStruct[] memory) {\r\n        return minted;\r\n    }\r\n\r\n    function concat(string memory str) internal view returns (string memory) {\r\n        return string(abi.encodePacked(baseURI, \"\", str));\r\n    }\r\n\r\n    function sendMoneyTo(address to, uint256 amount) internal {\r\n        (bool success1, ) = payable(to).call{value: amount}(\"\");\r\n        require(success1);\r\n    }\r\n}\r\n",
  "sourcePath": "C:\\sites\\dApps\\adulamNFT\\src\\contracts\\Adulam.sol",
  "compiler": {
    "name": "solc",
    "version": "0.8.11+commit.d7f03943.Emscripten.clang"
  },
  "schemaVersion": "3.4.4",
  "updatedAt": "2022-03-30T15:34:04.628Z",
  "networkType": "ethereum",
  "devdoc": {
    "kind": "dev",
    "methods": {
      "approve(address,uint256)": {
        "details": "See {IERC721-approve}."
      },
      "balanceOf(address)": {
        "details": "See {IERC721-balanceOf}."
      },
      "getApproved(uint256)": {
        "details": "See {IERC721-getApproved}."
      },
      "isApprovedForAll(address,address)": {
        "details": "See {IERC721-isApprovedForAll}."
      },
      "name()": {
        "details": "See {IERC721Metadata-name}."
      },
      "owner()": {
        "details": "Returns the address of the current owner."
      },
      "ownerOf(uint256)": {
        "details": "See {IERC721-ownerOf}."
      },
      "renounceOwnership()": {
        "details": "Leaves the contract without owner. It will not be possible to call `onlyOwner` functions anymore. Can only be called by the current owner. NOTE: Renouncing ownership will leave the contract without an owner, thereby removing any functionality that is only available to the owner."
      },
      "safeTransferFrom(address,address,uint256)": {
        "details": "See {IERC721-safeTransferFrom}."
      },
      "safeTransferFrom(address,address,uint256,bytes)": {
        "details": "See {IERC721-safeTransferFrom}."
      },
      "setApprovalForAll(address,bool)": {
        "details": "See {IERC721-setApprovalForAll}."
      },
      "supportsInterface(bytes4)": {
        "details": "See {IERC165-supportsInterface}."
      },
      "symbol()": {
        "details": "See {IERC721Metadata-symbol}."
      },
      "tokenByIndex(uint256)": {
        "details": "See {IERC721Enumerable-tokenByIndex}."
      },
      "tokenOfOwnerByIndex(address,uint256)": {
        "details": "See {IERC721Enumerable-tokenOfOwnerByIndex}."
      },
      "tokenURI(uint256)": {
        "details": "See {IERC721Metadata-tokenURI}."
      },
      "totalSupply()": {
        "details": "See {IERC721Enumerable-totalSupply}."
      },
      "transferFrom(address,address,uint256)": {
        "details": "See {IERC721-transferFrom}."
      },
      "transferOwnership(address)": {
        "details": "Transfers ownership of the contract to a new account (`newOwner`). Can only be called by the current owner."
      }
    },
    "version": 1
  },
  "userdoc": {
    "kind": "user",
    "methods": {},
    "version": 1
  }
}